:100000000C94FE000C94CB030C94A4030C94620596
:100010000C943D050C9418050C9426010C94F203E5
:100020000C9426010C9426010C9426010C942601B4
:100030000C9426010C9487050C9426010C9426013F
:100040000C945A030C9426010C946E020C944802F2
:100050000C9426010C9426010C9426010C94260184
:100060000C9426010C942601B30F261050107C101E
:100070007C107C107C107C107C107C107C107C1020
:100080007C107C107C10AE0E160E190E390E3C0E34
:10009000790EB10EE50E7C10100F7C107F0F7C10D6
:1000A000A70FAE0F00407A10F35A00A0724E180945
:1000B0000010A5D4E80000E87648170000E40B54CF
:1000C000020000CA9A3B000000E1F505000080969E
:1000D0009800000040420F000000A08601000000D0
:1000E000102700000000E80300000000640000008A
:1000F00000000A00000000000100000000002C7653
:10010000D888DC674F0823DFC1DFAE59E1B1B7966D
:10011000E5E3E453C63AE651997696E8E6C28426CA
:10012000EB898C9B62ED407C6FFCEFBC9C9F40F2A6
:10013000BAA56FA5F490055A2AF75C936B6CF96722
:100140006DC11BFCE0E40D47FEF520E6B500D0EDE7
:10015000902E0300943577050080841E080000204F
:100160004E0A000000C80C333333330F986E1283ED
:100170001141EF8D2114893BE65516CFFEE6DB18C1
:10018000D1844B381BF77C1D901DA4BBE424203286
:1001900084725E228100C9F124ECA1E53D270000B4
:1001A0000000240027002A00000000002300260091
:1001B000290000000000250028002B00040404048E
:1001C0000404040402020202020203030303030301
:1001D00001020408102040800102040810200102DE
:1001E00004081020000000080002010000030407BA
:1001F00000000000000000006812351211241FBE2C
:10020000CFEFD8E0DEBFCDBF24E0AAE6B2E001C068
:100210001D92A73DB207E1F712E0A0E0B1E0E0E5F2
:10022000F6E302C005900D92AA36B107D9F710E0A7
:10023000CDEFD0E004C02197FE010E941919CC3FF8
:10024000D107C9F70E94F7090C941B1B0C940000FE
:10025000FC01538D448D252F30E0842F90E0821BCC
:10026000930B541710F0CF96089501970895FC0151
:10027000918D828D981761F0828DDF01A80FB11DDD
:100280005D968C91928D9F5F9F73928F90E0089501
:100290008FEF9FEF0895FC01918D828D981731F0BB
:1002A000828DE80FF11D858D90E008958FEF9FEF0F
:1002B0000895FC01918D228D892F90E0805C9F4FE5
:1002C000821B91098F739927089584ED92E00E9413
:1002D000590121E0892B09F420E0822F0895FC01C7
:1002E000848DDF01A80FB11DA35ABF4F2C91848DBF
:1002F00090E001968F739927848FA689B7892C93F4
:10030000A089B1898C91837080648C93938D848D46
:10031000981306C00288F389E02D80818F7D808349
:100320000895EF92FF920F931F93CF93DF93EC0109
:1003300081E0888F9B8D8C8D981305C0E889F989A1
:10034000808185FD26C0F62E0B8D10E00F5F1F4FBC
:100350000F731127E02E8C8DE8120CC00FB607FC2E
:10036000FACFE889F989808185FFF5CFCE010E9417
:100370006F01F1CF8B8DFE01E80FF11DE35AFF4FA6
:10038000F0829FB7F8940B8FEA89FB8980818062A5
:100390000AC09FB7F894EE89FF896083E889F989DC
:1003A00080818370806480839FBF81E090E0DF91D3
:1003B000CF911F910F91FF90EF900895CF93DF930E
:1003C000EC01888D8823C9F0EA89FB89808185FD4D
:1003D00005C0A889B9898C9186FD0FC00FB607FCAE
:1003E000F5CF808185FFF2CFA889B9898C9185FFEF
:1003F000EDCFCE010E946F01E7CFDF91CF9108953D
:1004000080E090E0892B29F00E94650181110C9415
:100410000000089508952091BA028091BB028217CE
:1004200069F030E0F901E658FD4F80812F5F3F4FC2
:100430002F7333272093BA0290E008958FEF9FEF38
:10044000089580916A0290916B02019690936B02DD
:1004500080936A020895089580E090E008950E94D4
:10046000061B9C018091BB0290E04091BA02841B64
:100470009109805C9F4F60E470E00E94E318811155
:1004800005C0C901F8940E942408789490E008956A
:100490001F920F920FB60F9211242F933F934F93F9
:1004A0005F936F937F938F939F93AF93BF93EF93DC
:1004B000FF9384ED92E00E946F01FF91EF91BF9155
:1004C000AF919F918F917F916F915F914F913F91EC
:1004D0002F910F900FBE0F901F9018951F920F92A3
:1004E0000FB60F9211242F938F939F93EF93FF9347
:1004F000E091E402F091E5028081E091EA02F0915E
:10050000EB0282FD12C090818091ED028F5F8F73AC
:100510002091EE02821751F0E091ED02F0E0EC52F2
:10052000FD4F958F8093ED0201C08081FF91EF9187
:100530009F918F912F910F900FBE0F901F90189544
:1005400090E0FC01EC51FE4F2491FC01E053FE4F82
:100550003491FC01E454FE4FE491EE2309F43CC0D5
:10056000222339F1233091F038F42130A9F02230E0
:1005700001F584B58F7D12C0273091F02830A1F0AD
:100580002430B9F4809180008F7D03C08091800079
:100590008F77809380000DC084B58F7784BD09C0AC
:1005A0008091B0008F7703C08091B0008F7D8093E1
:1005B000B000F0E0EE0FFF1FEE54FE4FA591B49196
:1005C0009FB7F894611104C08C913095382302C014
:1005D000EC913E2B3C939FBF0895CF93DF9390E027
:1005E000FC01E053FE4F2491FC01E454FE4F849142
:1005F000882361F190E0880F991FFC01E256FE4FBD
:10060000C591D491FC01EE54FE4FA591B4916111B6
:1006100009C09FB7F8948881209582238883EC9144
:100620002E230BC0623061F49FB7F8948881322F7B
:10063000309583238883EC912E2B2C939FBF06C08B
:100640008FB7F894E8812E2B28838FBFDF91CF914D
:1006500008953FB7F8948091C5029091C602A09189
:10066000C702B091C80226B5A89B05C02F3F19F05C
:100670000196A11DB11D3FBFBA2FA92F982F882722
:10068000820F911DA11DB11DBC01CD0142E0660F7D
:10069000771F881F991F4A95D1F708952FB7F894AF
:1006A0006091C1027091C2028091C3029091C40214
:1006B0002FBF08951F920F920FB60F9211242F9300
:1006C0003F938F939F93AF93BF938091C10290917B
:1006D000C202A091C302B091C4023091C00223E0D3
:1006E000230F2D3720F40196A11DB11D05C026E86A
:1006F000230F0296A11DB11D2093C0028093C10259
:100700009093C202A093C302B093C4028091C50229
:100710009091C602A091C702B091C8020196A11D96
:10072000B11D8093C5029093C602A093C702B093F7
:10073000C802BF91AF919F918F913F912F910F90E0
:100740000FBE0F901F9018951F920F920FB60F9229
:1007500011242F933F934F935F936F937F938F93C6
:100760009F93AF93BF93EF93FF93E0910201F091BA
:1007700003010995FF91EF91BF91AF919F918F91E7
:100780007F916F915F914F913F912F910F900FBE8D
:100790000F901F9018951F920F920FB60F92112471
:1007A0002F933F934F935F936F937F938F939F9379
:1007B000AF93BF93EF93FF93E0910001F09101019C
:1007C0000995FF91EF91BF91AF919F918F917F918B
:1007D0006F915F914F913F912F910F900FBE0F90AE
:1007E0001F9018951F920F920FB60F9211242F93FE
:1007F0003F934F935F936F937F938F939F93AF93A9
:10080000BF93EF93FF93E0E0F0E00995FF91EF9144
:10081000BF91AF919F918F917F916F915F914F9118
:100820003F912F910F900FBE0F901F901895E09160
:10083000B303F091B4033097C1F00288F389E02D3F
:10084000309709F009942091BB0230E0A9014F5F75
:100850005F4F4F7355279091BA02941731F0F90109
:10086000E658FD4F80834093BB020895EF92FF92BC
:100870000F931F93CF93DF93F6B4E090CE02E8225C
:100880005091CF025F3F51F4E11056C01092CF0259
:1008900081E08093CB021092CC0248C08091CA02C2
:1008A000C091C902CF0D9091CD02C91BC89FE00134
:1008B0001124CD2FDD27C695C69549E0451B042F91
:1008C00010E00C171D0708F04C2F540F5093CF0267
:1008D0008091CC029091CB02292FE1100FC04150A2
:1008E000922F990F4F3F19F0822B292FF8CF809329
:1008F000CC029093CB025830C8F01BC0415001C0CD
:10090000220F4A95EAF72093CB02822B8093CC02E8
:10091000583060F00E94170481E0E81621F00C17AF
:100920001D0708F4B3CF8FEF8093CF02F092CD0272
:1009300003C00E941704F3CFDF91CF911F910F9155
:10094000FF90EF900895CF92DF92EF92FF920F9376
:100950001F93CF93DF938C01D62E8091BE0290918E
:10096000BF02892B09F456C0D8011C969C9198307F
:1009700050F081E09E3008F480E0D1E001C0DD0F4E
:100980008A95EAF701C0D4E0CFB6F894F6B490E0C7
:10099000E12CE394E091BE02F091BF028091BD0290
:1009A000BAE0EB1659F1992319F09081892B03C015
:1009B0009081809589238083C091BC02C63011F458
:1009C000E0FCC7E086B58F198C1798F48BB38D23A4
:1009D00061F08BB38D2B8BBBD8011E96ED91FC91F2
:1009E0001F9780810E943604EDCFC8010E94240821
:1009F000E9CFFC0E9D2D9170D694CBCF9081892BA1
:100A00008083CFBE86B58F198C1738F4C8010E9439
:100A10002408F8CF80E090E002C081E090E0DF9110
:100A2000CF911F910F91FF90EF90DF90CF9008959D
:100A30001F920F920FB60F9211242F933F934F9353
:100A40005F936F937F938F939F93AF93BF93EF9336
:100A5000FF9389B10E943604FF91EF91BF91AF914E
:100A60009F918F917F916F915F914F913F912F91C6
:100A70000F900FBE0F901F9018951F920F920FB6F8
:100A80000F9211242F933F934F935F936F937F9314
:100A90008F939F93AF93BF93EF93FF9386B10E9481
:100AA0003604FF91EF91BF91AF919F918F917F910C
:100AB0006F915F914F913F912F910F900FBE0F90CB
:100AC0001F9018951F920F920FB60F9211242F931B
:100AD0003F934F935F936F937F938F939F93AF93C6
:100AE000BF93EF93FF9383B10E943604FF91EF9180
:100AF000BF91AF919F918F917F916F915F914F9136
:100B00003F912F910F900FBE0F901F9018951F923D
:100B10000F920FB60F9211242F933F934F935F9331
:100B20006F937F938F939F93AF93BF93EF93FF93B5
:100B3000E0E0F0E00995FF91EF91BF91AF919F91B7
:100B40008F917F916F915F914F913F912F910F9076
:100B50000FBE0F901F901895CF93DF93FC018281F9
:100B600093810097B1F0EC01AA81BB81B383A2838A
:100B7000109729F015961C921E92149702C01582A8
:100B80001482EF010E94B719888199810197998396
:100B90008883DF91CF9108950F931F93CF93DF93B5
:100BA000EC018B0186E090E00E941F19FC0111838B
:100BB00000831382128215821482AC81BD8110974A
:100BC00019F49B838A8306C0B583A48313969C93F0
:100BD0008E931297FD83EC83888199810196998386
:100BE0008883DF91CF911F910F9108950F931F93E9
:100BF000CF93DF93EC0188819981009729F02A81B6
:100C00003B812617370788F48B016F5F7F4F0E9467
:100C1000401A009761F0998388831B830A832C8193
:100C20003D81232B11F4FC01108281E001C080E0A2
:100C3000DF91CF911F910F9108952F923F924F9284
:100C40005F926F927F928F929F92AF92BF92CF925C
:100C5000DF92EF92FF920F931F93CF93DF93009158
:100C600090031091910380908A0390908B03A09041
:100C70008C03B0908D038FE9282E83E0382EC0E0DE
:100C8000D0E02801612C712C0C171D0779F1BE01F1
:100C900080E090E00E94F5156B017C01C301B20178
:100CA0000E94F5159B01AC01C701B6010E94C71750
:100CB0006B017C012DEC3CEC4CE45DE3C501B4011F
:100CC0000E945A179B01AC01C701B6010E9456163B
:100CD0002DEC3CEC4CE45DE30E945B17F101619369
:100CE0007193819391931F012196CECFDF91CF9184
:100CF0001F910F91FF90EF90DF90CF90BF90AF903A
:100D00009F908F907F906F905F904F903F902F902B
:100D10000895CF92DF92EF92FF926B017C012DEC50
:100D20003CEC4CEC5DE30E946F1818169CF02DEC27
:100D30003CEC4CE45DE3C701B6010E94F01587FF6F
:100D400010C04DECC42E4CECD42E4CE4E42E4DE3FC
:100D5000F42E07C03DECC32E3CECD32EED2C3DE32E
:100D6000F32EC0928503D0928603E0928703F0921F
:100D7000880320E030EC4FE754E4C701B6010E943D
:100D800056160E9440186B017C0161E089E00E94C8
:100D9000ED02809180008068809380002091D202D3
:100DA0003091D302D6010E944B17DC01CB012AE01F
:100DB000B695A795979587952A95D1F79093890031
:100DC000809388008091D102806180938100FF90A0
:100DD000EF90DF90CF9008950F931F93CF93DF9301
:100DE0008B01D82FC92F20E030E0A9010E946F1895
:100DF000181684F420E030E040E85FE3B8018D2F5E
:100E00009C2F0E94F01587FD09C000E010E0D0E89B
:100E1000CFE304C000E010E0D0E0C0E02DEC3CECFB
:100E20004CE45DE3B8018D2F9C2F0E9456162DECEB
:100E30003CEC4CE45DE30E945B170E94890681E074
:100E4000DF91CF911F910F91089560E070E0CB0189
:100E50000E94EC0681E080938903089560E087E0BA
:100E60000E94A00261E084E00E94A0020E94250787
:100E700080E18093810010927E03E9988AE092E0FD
:100E80009093030180930201109273030895FC0173
:100E9000808191810C94B7190895CF93C62FFC01DE
:100EA000448155816081718184ED92E00E94CD0979
:100EB000CC2331F06AE084ED92E0CF910C94910163
:100EC000CF910895CF92DF92EF92FF920F931F93ED
:100ED000CF93DF93C0908A03D0908B03E0908C0374
:100EE000F0908D030091850310918603D0918703C4
:100EF000C09188032DEC3CEC4CE45DE3B8018D2FF0
:100F00009C2F0E946F18181624F00DEC1CECDCE4EA
:100F1000CDE398014D2F5C2FB601C7010E946F18D9
:100F200018161CF08601DE2DCF2D2DEC3CEC4CE488
:100F30005DE3B601C7010E945A179B01AC0160E056
:100F400070E080E89FE30E94C7176B017C012DECE5
:100F50003CEC4CE45DE3B8018D2F9C2F0E945A17A6
:100F60009B01AC01C701B6010E94561620E030E09B
:100F7000A9010E945B17DF91CF911F910F91FF9004
:100F8000EF90DF90CF900895CF93DF938091B503DA
:100F90009091B603181619066CF4E091B703F0911E
:100FA000B803309711F0C081D18185EB93E00E94A6
:100FB000AC0502C0C0E0D0E0CE01DF91CF91089532
:100FC00061E087E00E94A00260E084E00E94A0024D
:100FD00081E08093890308958F929F92AF92BF9290
:100FE000CF92DF92EF92FF920E9429034B015C01A6
:100FF00084EFC82EDD24D394E12CF12C0E94290328
:10100000DC01CB0188199909AA09BB09883E9340E4
:10101000A105B10598F321E0C21AD108E108F10851
:1010200088EE880E83E0981EA11CB11CC114D10467
:10103000E104F10419F7FF90EF90DF90CF90BF909B
:10104000AF909F908F900895CF93DF93FC013091E4
:10105000CF023F3FA9F1A685B7859C918091CE0232
:10106000892371F126B58091CA029091C902290F96
:101070009091CD02291B99E0931B492F50E0289FA6
:1010800090011124232F33272695269542175307C5
:10109000B8F48091CC022091CB02915018F0822BB1
:1010A000220FFBCFEF018093CC022093CB029093D1
:1010B000CF020E94170481E02A893B89232B09F083
:1010C00080E0DF91CF910895EF92FF920F931F93ED
:1010D000CF93DF936115710511F480E01CC04115B9
:1010E0005105C1F07B01EC018C819D818A01080FC3
:1010F000191FB801CE010E94F605882371F32881DB
:1011000039818C819D81B701820F931F0E94141B2E
:101110001D830C8381E0DF91CF911F910F91FF9090
:10112000EF900895CF93DF93EC0188819981009728
:1011300011F00E94B719198218821D821C821B822D
:101140001A82DF91CF910895EF92FF920F931F9330
:10115000CF93DF93EC017B018A01BA010E94F6056F
:10116000811104C0CE010E94920807C01D830C8328
:10117000B701888199810E94141BCE01DF91CF9124
:101180001F910F91FF90EF900895CF93DF93EC01A3
:101190006115710559F0FB0101900020E9F73197C5
:1011A000AF01461B570B0E94A40802C00E94920880
:1011B000CE01DF91CF9108950F931F93CF93DF93CB
:1011C000CDB7DEB762970FB6F894DEBF0FBECDBFC6
:1011D0008C01CB01F80111821082138212821582D8
:1011E00014824AE0BE016F5F7F4F0E948113BE01EF
:1011F0006F5F7F4FC8010E94C50862960FB6F894D2
:10120000DEBF0FBECDBFDF91CF911F910F9108952B
:10121000EF92FF920F931F93CF93DF93CDB7DEB77B
:10122000A1970FB6F894DEBF0FBECDBF7C01CB01F6
:10123000BA01F70111821082138212821582148280
:101240008E010F5F1F4F22E044E00E944313BC0158
:10125000C7010E94C508A1960FB6F894DEBF0FBE65
:10126000CDBFDF91CF911F910F91FF90EF90089527
:10127000CF93DF93EC01FB018617970761F0608144
:1012800071816115710529F0448155810E94A4087E
:1012900002C00E949208CE01DF91CF910895FC0117
:1012A00011821082138212821582148261157105D7
:1012B00051F0FB0101900020E9F73197AF01461B87
:1012C000570B0C94A4080895CF92DF92EF92FF92EF
:1012D0000F931F93CF93DF9300D000D000D0CDB7F2
:1012E000DEB767E572E0CE0101960E944F0960E02B
:1012F000CE0101960E944D07CE0101960E9447073C
:101300000E9462079B01AC0160E070E080E89FE30F
:101310000E945A170E947A186B017C0105E813E0BD
:10132000F8016185728580E090E00E94F515A701C3
:1013300096010E945616F80166877787808B918BFD
:10134000128A138A148A158A81E085870E944E03C7
:10135000F801668B778B808F918F468557856089E2
:101360007189CE0101960E94080961E0CE010196C3
:101370000E944D07CE0101960E94470726960FB6A0
:10138000F894DEBF0FBECDBFDF91CF911F910F91BB
:10139000FF90EF90DF90CF900895CF92DF92EF9281
:1013A000FF920F931F93CF93DF936C017A018B0110
:1013B000C0E0D0E0CE15DF0581F0D8016D918D0140
:1013C000D601ED91FC910190F081E02DC6010995C7
:1013D000892B11F02196EECF7E01C701DF91CF91CD
:1013E0001F910F91FF90EF90DF90CF900895CF93D2
:1013F000DF93CDB7DEB76D970FB6F894DEBF0FBEA3
:10140000CDBF789484B5826084BD84B5816084BD8D
:1014100085B5826085BD85B5816085BD80916E0092
:10142000816080936E0010928100809181008260C3
:101430008093810080918100816080938100809100
:1014400080008160809380008091B10084608093EF
:10145000B1008091B00081608093B00080917A00EB
:10146000846080937A0080917A00826080937A0011
:1014700080917A00816080937A0080917A00806800
:1014800080937A001092C100E091E402F091E502AD
:1014900082E08083E091E002F091E1021082E0912D
:1014A000E202F091E3028FEC80831092EC02E09173
:1014B000E802F091E90286E08083E091E602F09193
:1014C000E702808180618083E091E602F091E7028B
:1014D000808188608083E091E602F091E70280815C
:1014E00080688083E091E602F091E70280818F7D41
:1014F000808300E010E0B80165547C4F85EB93E0F9
:101500000E94CC05005F1F4F011521E0120799F7DB
:1015100061E087E00E94ED0261E084E00E94ED025C
:101520000E942E0780E090E0A0E8BDE380938A034C
:1015300090938B03A0938C03B0938D0380EA9FE07C
:1015400090938F0380938E030E941D0682E190E0AA
:101550000E941F19DC01EDEDF1E0E4911496EC938B
:101560001497ECEDF1E0E4911596EC93159729ECC6
:1015700031E0F9018491E82FF0E0EE0FFF1FEE5407
:10158000FE4F8591949117969C938E931697E8EC55
:10159000F1E0E491F0E0EE0FFF1FE855FE4F85917A
:1015A000949119969C938E931897F9012491E22FA8
:1015B000F0E0EE0FFF1FE256FE4F859194911B96CF
:1015C0009C938E931A978DE89FE61D969C938E931D
:1015D0001C97B0937203A093710362E083E00E94B2
:1015E000ED0280919203882309F4E2C00E94620711
:1015F0006B017C016EE271E0CE0101960E944F0901
:1016000060E0CE0101960E944D07CE0101960E9436
:101610004707B701A601CE0101960E94080961E0C3
:10162000CE0101960E944D07CE0101960E94470708
:101630002AE037ED43E25CE3C701B6010E94F015F2
:10164000181614F01092920320E030E040E85EE3B8
:10165000C701B6010E94F01518162CF00E9425074C
:1016600010929203A5C00E944E0300919B0310911B
:101670009C0320919D0330919E03DC01CB01801BD4
:10168000910BA20BB30B84369105A105B10508F4AB
:101690008FC020E030E048EC52E4609193037091F9
:1016A000940380919503909196030E945B17609339
:1016B00093037093940380939503909396030E94F1
:1016C00040180E94F51520E030E04AE755E40E94FA
:1016D000C7179B01AC010E9456169B01AC0160E04C
:1016E00070E080E89FE30E945A176B017C016FE471
:1016F00071E0CE0101960E944F0960E0CE01019693
:101700000E944D07CE0101960E944707B701A6012E
:10171000CE0101960E94080961E0CE0101960E9467
:101720004D07CE0101960E9447070E944E03609329
:101730009B0370939C0380939D0390939E038090E2
:101740008A0390908B03A0908C03B0908D0320E0CF
:1017500030E0A901C701B6010E946F1818168CF479
:1017600020E030E040E85FE3C701B6010E94F015D9
:1017700087FD0AC0C12CD12C50E8E52E5FE3F52E81
:1017800003C0C12CD12C76012DEC3CEC4CE45DE384
:10179000C501B4010E945A17A70196010E9456166E
:1017A0002DEC3CEC4CE45DE30E945B170E94890643
:1017B00080917303882309F438C10E944E0300917D
:1017C0007002109171022091720230917302AB018C
:1017D000BC01401B510B620B730B80917403909101
:1017E0007503A0E0B0E0481759076A077B0708F4C3
:1017F0001CC1809183039091840360917A0370915E
:101800007B030E94CF18161617060CF035C1009105
:10181000710310917203D8011A96ED91FC911B97F8
:10182000908114968C911497892B80831696ED9154
:10183000FC911797908114968C9114978095892329
:1018400080838BE090E00197F1F71696ED91FC9183
:101850001797908114968C911497892B808383E23B
:1018600090E00197F1F71696ED91FC911797908112
:1018700014968C9114978095892380831A96ED9104
:10188000FC911B97908114968C91149780958923D5
:1018900080831896ED91FC911997908115968C9103
:1018A000892309F0A3C40E942903D8011C962D9115
:1018B0003C911D976901E12CF12CB8EACB0EB6E101
:1018C000DB1EE11CF11CDC01CB018C0D9D1DAE1D4E
:1018D000BF1DF80186879787A08BB18BD80118961A
:1018E000ED91FC911997908115968C91892309F4BB
:1018F00062C40E942903D8011C962D913C911D972A
:10190000DC01CB01820F931FA11DB11DF801868759
:101910009787A08BB18BD8011896ED91FC91199700
:10192000908115968C91892309F053C40E94290354
:10193000D8011C962D913C911D97A9014550510944
:101940001E962D913C911F97FA01E21BF30BAF01FC
:10195000460F571FBA0180E090E029E330E040E0F5
:1019600050E00E94F71830937903209378030E9487
:101970004E03609370027093710280937202909391
:10198000730280917803909179031B8A1A8A1D8AC9
:101990001C8A1F8A1E8A4AE0BE016F5F7F4F0E9429
:1019A0009413BE016F5F7F4FCE0142960E94C5081F
:1019B0006EE671E0CE0101960E944F094E895F8963
:1019C0006A897B89CE0101960E946408811104C056
:1019D000CE0101960E94920842E050E06FE771E06C
:1019E000CE0101960E946408882309F402C4198E6E
:1019F000188E1B8E1A8E1D8E1C8EBE016F5F7F4F40
:101A0000CE0148960E94380961E0CE0148960E94B6
:101A10004D07CE0148960E944707CE0101960E94CD
:101A20004707CE0142960E94470780918303909119
:101A3000840360917A0370917B030E94CF1816167D
:101A40001706D4F480917803909179030097A1F060
:101A500020917603309177032817390728F00E94E8
:101A600025071092920308C0C39730F48091920327
:101A7000811102C00E94640980917E03882309F4C9
:101A80006BC00E944E0300916C0210916D02209178
:101A90006E0230916F02DC01CB01801B910BA20B17
:101AA000B30B883E9340A105B10508F455C0809161
:101AB0006A0290916B029695879590938403809328
:101AC000830360917A0370917B030E94CF18672B88
:101AD000A9F162E871E0CE0101960E944F0960E031
:101AE000CE0101960E944D07CE0101960E94470744
:101AF000809183039091840360917A0370917B03BA
:101B00000E94CF18CE0101960E94DC0860E0CE0151
:101B100001960E944D07CE0101960E94470760E999
:101B200071E0CE0101960E944F0961E0CE0101965D
:101B30000E944D07CE0101960E9447070E944E0366
:101B400060936C0270936D0280936E0290936F02AB
:101B500010926B0210926A0286E7882E90E1B92EED
:101B600022E0A22E32E1932E8091BB049091BC041E
:101B7000DC01ED91FC910084F185E02D09951816AA
:101B800019060CF0F0C28091BB049091BC04DC01FA
:101B9000ED91FC910284F385E02D09958A3081F066
:101BA0002091740230917502A9014F5F5F4F5093ED
:101BB000750240937402F901E554FB4F8283D4CF40
:101BC0000E94C4076C0100917402109175028DEBA4
:101BD00094E0F601A601400F511F4E175F0729F050
:101BE000DC012D91CD012193F8CFFA011082D601AD
:101BF0005D907D010150110964E971E0CE0101960B
:101C00000E944F09CE0101960E944707852D550C71
:101C1000990BAA0BBB0BFC01EF55F109EE31F10555
:101C200008F06AC2EC5CFF4F0C9419190E942E0751
:101C300063C2809183039091840360917A037091D1
:101C40007B030E94CF18072E000C880B990B0E9473
:101C5000F71520E030E040E85FE30E94F01587FFD1
:101C60004BC260E070E080E89FE30E94EC0681E0F8
:101C70003DC00E94250740C20330110509F03CC257
:101C8000C7010E9463138C0161EA71E0CE010196E5
:101C90000E944F0960E0CE0101960E944D07CE01DF
:101CA00001960E944707B801110F880B990B0E94FB
:101CB000F71520E030EC49E754E40E94C7171B01F8
:101CC0002C01AB01BC01CE0101960E94080961E024
:101CD000CE0101960E944D07CE0101960E94470752
:101CE00010929203C201B1010E94EC068093890315
:101CF00003C2B092810010928000A092D102EAE16A
:101D0000F1E4F093D302E093D202F0938700E093E2
:101D1000860090928100809183039091840360916A
:101D20007A0370917B030E94CF18072E000C880B5A
:101D3000990B0E94F71520E030E040E85FE30E9435
:101D4000F01587FF09C060E070E080E89FE30E9423
:101D5000EC0681E0809389030E94EC070E94E00773
:101D6000CBC1B092810010928000A092D1022AE1F2
:101D700031E43093D3022093D20230938700209332
:101D80008600909281000E9425070E94EC070E9425
:101D9000E00791E090937E03A1E2B2E0B0930301EB
:101DA000A0930201809169008C6080936900E99A98
:101DB000909373030E944E036093700270937102BC
:101DC000809372029093730297C180918903882354
:101DD00009F492C10E9462071B012C010E94C407F2
:101DE0008C01FC0181927F0120E030E04AE754E45D
:101DF000C201B1010E94561620E030E040E85FE3E6
:101E00000E945A170E943918DC01CB014AE0B70141
:101E10000E948113D80114961C92109289038DC0E0
:101E20000E94C4078C0128E7FC01208337E430932B
:101E30007C0080917A00806480937A0080917A009F
:101E400086FDFCCF609178008091790070E0782B5E
:101E5000072E000C880B990B0E94F71520E030EC40
:101E60004FE754E40E94C71720E030E048EC51E40B
:101E70000E9456161B012C0161EB71E0CE01019608
:101E80000E944F0960E0CE0101960E944D07CE01ED
:101E900001960E944707B201A101CE0101960E945E
:101EA000080960E0CE0101960E944D07CE0101961F
:101EB0000E9447076FEB71E0CE0101960E944F0927
:101EC00061E0CE0101960E944D07CE0101960E946D
:101ED000470720E030E048EC52E4C201B1010E9423
:101EE00056160E943918DC01CB014AE0B8016F5F39
:101EF0007F4F0E948113D80115961C921EC08091BD
:101F00007E03882309F4F8C08091830390918403B1
:101F100060917A0370917B030E94CF187B010E942D
:101F2000C4078C01F8012AE72193BF014AE0C701E9
:101F30000E948113D80113961C920115110509F412
:101F4000DBC0B8018DEC94E00E94CC05D5C0809137
:101F500092038111D1C00E946409CEC00E9425075E
:101F600010929203C9C00230110509F0C5C0C70123
:101F70000E946313BC01990F880B990B0E94F715FF
:101F80002AE037ED43E25CE30E9456161B012C0168
:101F900062EC71E0CE0101960E944F0960E0CE0133
:101FA00001960E944D07CE0101960E944707B2019B
:101FB000A101CE0142960E94080966EE71E0CE01B1
:101FC00048960E944F094E895F896A897B89CE01B4
:101FD00048960E946408811104C0CE0148960E9470
:101FE00092081A8219821C821B821E821D82BE01E7
:101FF000685E7F4FCE0101960E94380960E0CE01F5
:1020000001960E944D07CE0101960E944707CE011E
:1020100048960E944707CE0142960E9447072DEC42
:102020003CEC4CE45DE3C201B1010E9456162DEC7C
:102030003CEC4CE45DE30E945B1760938A03709371
:102040008B0380938C0390938D0354C0043011054F
:1020500009F052C0C7010E9463138C0166EF71E062
:10206000CE0101960E944F0960E0CE0101960E94C8
:102070004D07CE0101960E944707B801CE01019697
:102080000E94DC0861E0CE0101960E944D07CE015E
:1020900001960E94470710938F0300938E032CC074
:1020A0000130110549F5C7010E9463138C010697A1
:1020B0001CF565E272E0CE0101960E944F0960E0D6
:1020C000CE0101960E944D07CE0101960E9447075E
:1020D000B801CE0101960E94DC0861E0CE010196B4
:1020E0000E944D07CE0101960E944707109391036D
:1020F000009390030E941D061092750210927402C4
:10210000B60185EB93E00E94CC052ECD6AE00995DF
:102110008091BB049091BC04DC01ED91FC910680A0
:10212000F781E02D099565E472E0CE0101960E94E9
:102130004F09CE0101960E944707F3016081062EE8
:10214000000C770BCE0101960E94DC08CE010196AF
:102150000E944707B30185EB93E00E94CC058DEC0C
:1021600094E00E94AC058091CD049091CE041816A5
:102170001906F4F4E091CF04F091D004309711F0F7
:10218000608071806114710471F38301F8016191C1
:102190008F018091BB049091BC04DC01ED91FC9116
:1021A0000190F081E02D662309F4B0CF0995EECFC0
:1021B0000E94000216CA0E942903F801C684D7842F
:1021C000E088F188C616D706E806F90608F086CB3F
:1021D0000DC00E942903F801C684D784E088F188E5
:1021E000C616D706E806F90608F095CB40E050E0A1
:1021F000B1CBCE0101960E949208F9CB0F931F93A9
:10220000CF93DF93EC010091B3031091B403011558
:10221000110509F45AC0D8011C968C91883038F009
:102220008E3040F0863148F0E0E0F0E008C0EDE6A6
:10223000F0E005C0EBE6F0E002C0ECE6F0E04FB7FE
:10224000F8941092B4031092B3033097E9F1D801D7
:102250001C969C91963118F020E030E002C028E6F0
:1022600030E0D9016C91983060F051E09E3008F474
:1022700050E081E090E001C0880F5A95EAF7809520
:1022800001C08BEF8623D9018C936081D8011C9605
:102290005C91583038F481E090E001C0880F5A9585
:1022A000EAF70FC0252F30E05E3018F428503109CE
:1022B00002C02E50310981E090E001C0880F2A95BC
:1022C000EAF78095862380834FBF60E08C850E946B
:1022D000ED028C8590E0FC01E053FE4FE491E09329
:1022E000CE02FC01E454FE4FE491F0E0EE0FFF1F3C
:1022F000E855FE4F859194919F878E878D8590E05C
:10230000FC01E053FE4F24912093BD02FC01E454F4
:10231000FE4FE491F0E0EE0FFF1FEE54FE4FA5914B
:10232000B491B093BF02A093BE02109719F0EC9144
:10233000E22BEC9361E08D850E94ED028C85883064
:1023400040F08E3048F0863108F08AC00CE610E08C
:1023500005C00DE610E002C00BE610E08FEF8093A1
:10236000CF021092BA021092BB02E881F981068076
:10237000F781E02DCE010995888999898115BBE403
:102380009B0709F045C08DE08093BC028EE48093EA
:10239000CA0286E08093C9025FB7F894F8014081D1
:1023A0009C85983030F481E001C0880F9A95EAF757
:1023B0000EC0292F30E09E3018F42850310902C099
:1023C0002E50310981E001C0880F2A95EAF7842B4D
:1023D000D8018C938C85863118F0E0E0F0E002C0E3
:1023E000E8E6F0E09081883050F021E08E3008F48B
:1023F00020E081E001C0880F2A95EAF701C084E05F
:10240000892B8083D093B403C093B3035FBF28C0EC
:102410008130EBE49E0760F48038954209F0BCCF30
:102420008AE18093BC0287E28093CA028AE0B2CF3D
:1024300082312AE7920741F488E08093BC0280E869
:102440008093CA0285E0A6CF8115964909F0A4CFF2
:1024500086E08093BC028DE98093CA0284E09ACF23
:10246000DF91CF911F910F9108958091B7039091C3
:10247000B803009799F0FC01228133813093B803AF
:102480002093B7030E94B7198091B5039091B603CA
:1024900001979093B6038093B503E7CF8091CF0463
:1024A0009091D004009799F0FC0122813381309300
:1024B000D0042093CF040E94B7198091CD0490914D
:1024C000CE0401979093CE048093CD04E7CF089576
:1024D000CF92DF92EF92FF92CF93DF931092D702C9
:1024E0001092D60288EEC82E83E0D82EE12CF12C73
:1024F000C092D802D092D902E092DA02F092DB02C6
:102500008EE091E09093D5028093D40285EC90E028
:102510009093E1028093E00284EC90E09093E302D8
:102520008093E20280EC90E09093E5028093E402D5
:1025300081EC90E09093E7028093E60282EC90E0D9
:102540009093E9028093E80286EC90E09093EB028E
:102550008093EA021092ED021092EE021092EF02C6
:102560001092F00284EF91E09093750380937403CE
:1025700084E190E0909377038093760382E090E08B
:1025800090937B0380937A038AE090E090937D039D
:1025900080937C0310927E03109285031092860331
:1025A000109287031092880381E08093890385E06D
:1025B00090E0909391038093900310929203109275
:1025C0009303109294031092950310929603109225
:1025D0009703109298031092990310929A03109205
:1025E000CE041092CD041092D0041092CF04109219
:1025F000D2041092D10484E190E00E941F19EC01F2
:102600001B821A82CC82DD82EE82FF8280E291E020
:102610009983888382E08C8785E08D871B8A1A8A5C
:10262000D093BC04C093BB048889998980389542B3
:1026300071F080E895E2998B888B8091B30390913B
:10264000B403C817D90719F4CE010E94FE10CE01B9
:102650000E94FE108091BB049091BC040E94FE1069
:102660001092B6031092B5031092B8031092B703FC
:102670001092BA031092B903DF91CF91FF90EF90BF
:10268000DF90CF900895EF920F931F93CF93DF9336
:10269000E80147FD02C034E001C034E1042E000C23
:1026A000550B57FF03C0519541955109E32E022F59
:1026B000242FAE010E94AE13CE01DF91CF911F9166
:1026C0000F91EF900895FC0188279927E8942191B4
:1026D0002032E9F3293010F02E30C8F32B3241F0CC
:1026E0002D3239F4689404C00E948C13820F911D1E
:1026F000219120532A30C0F31EF4909581959F4F6D
:102700000895BB274A3031F4992322F4BDE2909515
:1027100081959F4F0C9495137AE0979F902D879FFA
:10272000802D910D11240895BB27FB015527AA2761
:10273000880F991FAA1FA41710F0A41B839550514E
:10274000B9F7A05DAA3308F0A95DA193009779F7C6
:10275000B111B1931192CB010C94E015A9E0B0E056
:10276000E4EBF3E10C941A176A01122FB02E2BE35D
:10277000201720F0FF24F394F00E02C02CE3F22E79
:102780000F2D27E0AE014F5F5F4F0E940815BC017F
:102790004981842F8970813031F0E1FC06C0E0FE70
:1027A00006C090E205C09DE203C09BE201C090E03C
:1027B0005E2D507143FF3CC0911102C083E001C007
:1027C00084E0811718F4212F281B01C020E051114B
:1027D0000BC0F601822F30E2882319F0319381502B
:1027E000FBCFC20ED11C20E0992329F0D6019C9387
:1027F000F60131966F01C6010396E2FE0AC03EE47F
:10280000D6013C9341E411964C93119712963C9358
:1028100006C03EE6F601308341E641833283FC0187
:10282000322F40E2332309F442C041933150FACFB2
:1028300042FF44C0911102C083E001C084E08117CF
:1028400018F4212F281B01C020E051110BC0F60104
:10285000822F30E2882319F031938150FBCFC20ED2
:10286000D11C20E0992329F0D6019C93F6013196E2
:102870006F01C6010396E2FE0BC039E4D6013C931A
:102880003EE411963C93119736E412963C9307C0B0
:1028900039E6F60130833EE6318336E63283FC01C9
:1028A000322F40E2332319F041933150FBCFFC012A
:1028B000E20FF11D10828EEF9FEFA6C021E030E005
:1028C000911102C020E030E0161617061CF4FB013F
:1028D000319602C0E1E0F0E02E0F3F1FBB2021F057
:1028E000EB2DF0E0319602C0E0E0F0E02E0F3F1F4C
:1028F000E12FF0E02E173F071CF4121B212F01C01F
:1029000020E08E2D887159F4F601822F30E2882361
:1029100019F031938150FBCFC20ED11C20E09923D6
:1029200029F0D6019C93F60131966F0151110BC02D
:10293000F601822F90E3882319F091938150FBCF09
:10294000C20ED11C20E00F2D060F9A81342F30715A
:1029500044FF03C0913309F40150101624F40930E8
:1029600018F008E001C001E0AB0177FF02C040E0D1
:1029700050E0FB01E41BF50BA1E0B0E0AC0FBD1F84
:10298000EA0FFB1F8EE2A82E4B01801A91080B2D37
:1029900010E01195019511094F3FBFEF5B0721F43E
:1029A000D601AC9211966D01641775072CF0841650
:1029B000950614F4818101C080E34150510931969C
:1029C000D60111967D014017510724F0D6018C9352
:1029D0006701E2CF6417750739F4963320F4953315
:1029E00019F4311101C081E3F6018083F701822FD0
:1029F00090E2882319F091938150FBCFF701E20F09
:102A0000F11D108280E090E02996ECE00C943617DE
:102A1000283008F027E03327DA01990F311D87FDB0
:102A2000916000966105710539F432602E5F3D9327
:102A300030E32A95E1F708959F3F30F08038710523
:102A4000610509F03C5F3C5F3D93913008F0806880
:102A5000911DDF93CF931F930F93FF92EF92192F46
:102A6000987F9695E92F96959695E90FFF27E25066
:102A7000FF4F99273327EE24FF24A701E701059094
:102A80000894079428F4360FE71EF81E491F511DBD
:102A9000660F771F881F991F0694A1F7059007946A
:102AA00028F4E70EF81E491F561FC11D770F881F17
:102AB000991F661F0694A1F70590079428F4F80E55
:102AC000491F561FC71FD11D880F991F661F771FEB
:102AD0000694A1F70590079420F4490F561FC71FCD
:102AE000D81F990F661F771F881F0694A9F7849136
:102AF0001095177041F0D695C79557954795F7945F
:102B0000E7941A95C1F7E4EAF0E0689415901591FE
:102B100035916591959105907FE27395E118F10AE1
:102B2000430B560BC90BD009C0F7E10CF11E431F34
:102B3000561FC91FD01D7EF4703311F48A95E6CF5D
:102B4000E894015030F0080F0AF40027021708F447
:102B5000202F2395022F7A3328F079E37D932A954D
:102B6000E9F710C07D932A9589F6069497956795A5
:102B7000379517951794E118F10A430B560BC90BBB
:102B8000D00998F023957E9173957A3308F070E31D
:102B90007C932013B8F77E9170617D9330F083951C
:102BA00071E37D9370E32A95E1F71124EF90FF9094
:102BB0000F911F91CF91DF91992787FD90950895EF
:102BC000DC01FC01672F71917723E1F7329704C094
:102BD0007C916D9370836291AE17BF07C8F308951F
:102BE0000E94321608F481E00895E89409C097FB2A
:102BF0003EF490958095709561957F4F8F4F9F4FD4
:102C00009923A9F0F92F96E9BB279395F695879517
:102C100077956795B795F111F8CFFAF4BB0F11F4DA
:102C200060FF1BC06F5F7F4F8F4F9F4F16C0882381
:102C300011F096E911C0772321F09EE8872F762FB7
:102C400005C0662371F096E8862F70E060E02AF0F8
:102C50009A95660F771F881FDAF7880F96958795E4
:102C600097F90895990F0008550FAA0BE0E8FEEFB9
:102C700016161706E807F907C0F012161306E40740
:102C8000F50798F0621B730B840B950B39F40A2639
:102C900061F0232B242B252B21F408950A2609F417
:102CA000A140A6958FEF811D811D08950E94691690
:102CB0000C94DA160E94CC1638F00E94D31620F03D
:102CC000952311F00C94C3160C94C91611240C947E
:102CD0000E170E94EB1670F3959FC1F3950F50E00D
:102CE000551F629FF001729FBB27F00DB11D639FBE
:102CF000AA27F00DB11DAA1F649F6627B00DA11D64
:102D0000661F829F2227B00DA11D621F739FB00D09
:102D1000A11D621F839FA00D611D221F749F332779
:102D2000A00D611D231F849F600D211D822F762F12
:102D30006A2F11249F5750409AF0F1F088234AF0EF
:102D4000EE0FFF1FBB1F661F771F881F915050405B
:102D5000A9F79E3F510580F00C94C3160C940E17F2
:102D60005F3FE4F3983ED4F3869577956795B795E2
:102D7000F795E7959F5FC1F7FE2B880F911D9695FC
:102D8000879597F9089597F99F6780E870E060E06C
:102D900008959FEF80EC089500240A9416161706F4
:102DA00018060906089500240A941216130614063C
:102DB00005060895092E0394000C11F4882352F09F
:102DC000BB0F40F4BF2B11F460FF04C06F5F7F4F57
:102DD0008F4F9F4F089557FD9058440F551F59F03E
:102DE0005F3F71F04795880F97FB991F61F09F3FF8
:102DF00079F087950895121613061406551FF2CF21
:102E00004695F1DF08C0161617061806991FF1CF70
:102E100086957105610508940895E894BB27662797
:102E20007727CB0197F908952F923F924F925F92A7
:102E30006F927F928F929F92AF92BF92CF92DF92CA
:102E4000EF92FF920F931F93CF93DF93CDB7DEB72F
:102E5000CA1BDB0B0FB6F894DEBF0FBECDBF0994C3
:102E60002A88398848885F846E847D848C849B841A
:102E7000AA84B984C884DF80EE80FD800C811B8128
:102E8000AA81B981CE0FD11D0FB6F894DEBF0FBE57
:102E9000CDBFED010895A29FB001B39FC001A39FD4
:102EA000700D811D1124911DB29F700D811D112483
:102EB000911D08955058BB27AA270E9472170C94A1
:102EC000DA160E94CC1638F00E94D31620F039F49E
:102ED0009F3F19F426F40C94C9160EF4E095E7FB15
:102EE0000C94C316E92F0E94EB1658F3BA17620729
:102EF00073078407950720F079F4A6F50C940D1755
:102F00000EF4E0950B2EBA2FA02D0B01B901900104
:102F10000C01CA01A0011124FF27591B99F0593F48
:102F200050F4503E68F11A16F040A22F232F342F90
:102F30004427585FF3CF469537952795A795F040DE
:102F40005395C9F77EF41F16BA0B620B730B840BF3
:102F5000BAF09150A1F0FF0FBB1F661F771F881FAB
:102F6000C2F70EC0BA0F621F731F841F48F4879503
:102F700077956795B795F7959E3F08F0B0CF9395F5
:102F8000880F08F09927EE0F9795879508950E946E
:102F9000DB170C94DA160E94D31658F00E94CC1658
:102FA00040F029F45F3F29F00C94C31651110C94A2
:102FB0000E170C94C9160E94EB1668F39923B1F30F
:102FC000552391F3951B550BBB27AA27621773074F
:102FD000840738F09F5F5F4F220F331F441FAA1FE3
:102FE000A9F335D00E2E3AF0E0E832D0915050409F
:102FF000E695001CCAF72BD0FE2F29D0660F771F4D
:10300000881FBB1F261737074807AB07B0E809F032
:10301000BB0B802DBF01FF2793585F4F3AF09E3FB7
:10302000510578F00C94C3160C940E175F3FE4F32F
:10303000983ED4F3869577956795B795F7959F5FFA
:10304000C9F7880F911D9695879597F90895E1E046
:10305000660F771F881FBB1F621773078407BA07A5
:1030600020F0621B730B840BBA0BEE1F88F7E09500
:1030700008950E9440186894B1110C940E17089599
:103080000E94F31688F09F5798F0B92F9927B751EF
:10309000B0F0E1F0660F771F881F991F1AF0BA95FC
:1030A000C9F714C0B13091F00E940D17B1E0089536
:1030B0000C940D17672F782F8827B85F39F0B93F28
:1030C000CCF3869577956795B395D9F73EF49095AF
:1030D0008095709561957F4F8F4F9F4F08950E9407
:1030E000321608F48FEF089519F416F40C94C916EB
:1030F0000C94BA180E94F316B8F39923C9F3B6F3E7
:103100009F57550B87FF0E94C8180024A0E640EA8D
:10311000900180585695979528F4805C660F771F2C
:10312000881F20F026173707480730F4621B730BFF
:10313000840B202931294A2BA69517940794202522
:1031400031254A2758F7660F771F881F20F026176A
:103150003707480730F4620B730B840B200D311DC9
:10316000411DA09581F7B901842F9158880F96953C
:10317000879508959F3F31F0915020F4879577957A
:103180006795B795880F911D9695879597F908953E
:1031900091505040660F771F881FD2F70895AA1BE1
:1031A000BB1B51E107C0AA1FBB1FA617B70710F032
:1031B000A61BB70B881F991F5A95A9F78095909564
:1031C000BC01CD01089597FB072E16F4009407D09B
:1031D00077FD09D00E94CF1807FC05D03EF49095EA
:1031E00081959F4F0895709561957F4F0895A1E255
:1031F0001A2EAA1BBB1BFD010DC0AA1FBB1FEE1F71
:10320000FF1FA217B307E407F50720F0A21BB30BBB
:10321000E40BF50B661F771F881F991F1A9469F737
:1032200060957095809590959B01AC01BD01CF0193
:103230000895EE0FFF1F0590F491E02D09940F9370
:103240001F93CF93DF938230910510F482E090E0DA
:10325000E091D504F091D60420E030E0A0E0B0E0A9
:10326000309719F140815181028113814817590724
:10327000C8F08417950769F4109731F012960C93F3
:10328000129713961C9327C00093D5041093D6046D
:1032900022C02115310519F04217530718F49A017D
:1032A000BD01EF01DF01F801DBCF21153105F9F098
:1032B000281B390B2430310580F48A819B816115EC
:1032C000710521F0FB019383828304C09093D6049F
:1032D0008093D504FE01329644C0FE01E20FF31F35
:1032E0008193919322503109398328833AC02091E8
:1032F000D3043091D404232B41F420910601309162
:1033000007013093D4042093D30420910401309119
:1033100005012115310541F42DB73EB74091080153
:1033200050910901241B350BE091D304F091D40492
:10333000E217F307A0F42E1B3F0B2817390778F08C
:10334000AC014E5F5F4F2417350748F04E0F5F1FEB
:103350005093D4044093D3048193919302C0E0E04E
:10336000F0E0CF01DF91CF911F910F910895CF939E
:10337000DF93009709F481C0FC0132971382128217
:10338000A091D504B091D604109781F420813181A9
:10339000820F931F2091D3043091D404281739074A
:1033A00051F5F093D404E093D30467C0ED0120E01D
:1033B00030E0CE17DF0740F44A815B819E01411562
:1033C0005105F1F0EA01F5CFD383C28340815181E9
:1033D000840F951FC817D90759F488819981840FE4
:1033E000951F0296918380838A819B819383828338
:1033F0002115310529F4F093D604E093D5043DC09E
:10340000E901FB83EA8349915991C40FD51FEC1759
:10341000FD0761F480819181840F951F0296E90177
:1034200099838883828193819B838A83E0E0F0E0A3
:1034300012968D919C911397009719F0FD01DC0174
:10344000F7CF8D919C9111979D012E5F3F4F820F79
:10345000931F2091D3043091D4042817390769F4BD
:10346000309729F41092D6041092D50402C013822A
:103470001282B093D404A093D304DF91CF91089526
:10348000A0E0B0E0E6E4FAE10C941817EC01009734
:1034900021F4CB010E941F19B4C0FC01E60FF71FF5
:1034A0009C0122503109E217F30708F4A8C0D901A2
:1034B0000D911C91119706171707B0F005301105F3
:1034C00008F49BC0C80104978617970708F495C0B5
:1034D00002501109061B170B019311936D937C93F6
:1034E000CF010E94B71989C05B01A01AB10A4C0133
:1034F000800E911EA091D504B091D604612C712C40
:10350000E12CF12C109709F446C08D919C911197F4
:10351000A815B905B1F56C0142E0C40ED11CCA145E
:10352000DB0478F14C018A189B08640142E0C40E68
:10353000D11C1296BC9012971396AC91B5E0CB16A5
:10354000D10440F0B282A38391828082D9016D932D
:103550007C9309C00E5F1F4F800F911FF90191836B
:103560008083EB2DFA2FE114F10431F0D70113968B
:10357000FC93EE93129741C0F093D604E093D504E8
:103580003CC06816790608F43C017D0112960D9046
:10359000BC91A02DB7CF8091D3049091D40488160C
:1035A0009906E1F466167706C8F4809104019091BB
:1035B0000501009741F48DB79EB7409108015091E5
:1035C0000901841B950BE817F907C8F4F093D4049C
:1035D000E093D304F901718360830FC0CB010E9493
:1035E0001F197C01009759F0A801BE010E940B1B16
:1035F000CE010E94B719C70104C0CE0102C080E00D
:1036000090E0CDB7DEB7EEE00C94341781E090E0A7
:10361000F8940C941B1BFB01DC0102C001900D927D
:1036200041505040D8F70895FB01DC0101900D9204
:103630000020E1F7089510E0CDEFD0E004C0FE01D6
:103640000E9419192196CE3FD107C9F7F894FFCFF0
:103650000A020A020000D704800000000000910165
:10366000CD092801DE01590137014B01000000009E
:10367000A304CD092C022B0231020B022C0263752C
:103680007272656E74204E6F726D616C697A6564DA
:103690002020416363656C657261746F723A004209
:1036A00072616B696E672C6E6F726D616C697A65A1
:1036B0006420616363656C657261746F7200536F3F
:1036C0006E61722044697374616E6365203A0063B1
:1036D0006D004D6F746F72205370656564203A0001
:1036E00052505300526563764D6573736167653A56
:1036F000004332445F4D4F544F525F445249564548
:10370000004261747465727920566F6C743A0020BF
:103710007600455F4332445F53455454494E475FFA
:10372000534B4154455F4D41585F4143434C4552D3
:1037300041544F523A004D6178416363656C657244
:1037400061746F723A00455F4332445F534554548D
:10375000494E475F534B4154455F4D41585F41438C
:10376000434C455241544F525F4252414B455F5486
:10377000494D453A00455F4332445F5345545449EF
:103780004E475F534B4154455F474541525F434F5E
:10379000554E543A0053656E64696E67204D6573EB
:1037A00073616765203A00537461727420536F66C9
:0A37B00074204272616B653A00005C
:00000001FF
